{
  "_format": "hh-sol-artifact-1",
  "contractName": "Post",
  "sourceName": "contracts/Post.sol",
  "abi": [
    {
      "inputs": [
        {
          "internalType": "string",
          "name": "content",
          "type": "string"
        }
      ],
      "name": "createPost",
      "outputs": [],
      "stateMutability": "nonpayable",
      "type": "function"
    },
    {
      "inputs": [
        {
          "internalType": "uint256",
          "name": "index",
          "type": "uint256"
        }
      ],
      "name": "getPost",
      "outputs": [
        {
          "components": [
            {
              "internalType": "address",
              "name": "author",
              "type": "address"
            },
            {
              "internalType": "string",
              "name": "content",
              "type": "string"
            },
            {
              "internalType": "uint256",
              "name": "timestamp",
              "type": "uint256"
            }
          ],
          "internalType": "struct Post.PostStruct",
          "name": "",
          "type": "tuple"
        }
      ],
      "stateMutability": "view",
      "type": "function"
    },
    {
      "inputs": [],
      "name": "getPostCount",
      "outputs": [
        {
          "internalType": "uint256",
          "name": "",
          "type": "uint256"
        }
      ],
      "stateMutability": "view",
      "type": "function"
    },
    {
      "inputs": [
        {
          "internalType": "uint256",
          "name": "",
          "type": "uint256"
        }
      ],
      "name": "posts",
      "outputs": [
        {
          "internalType": "address",
          "name": "author",
          "type": "address"
        },
        {
          "internalType": "string",
          "name": "content",
          "type": "string"
        },
        {
          "internalType": "uint256",
          "name": "timestamp",
          "type": "uint256"
        }
      ],
      "stateMutability": "view",
      "type": "function"
    }
  ],
  "bytecode": "0x608060405234801561001057600080fd5b50610c06806100206000396000f3fe608060405234801561001057600080fd5b506004361061004c5760003560e01c80630b1e7f831461005157806340731c2414610083578063bcc95407146100b3578063c7303c61146100d1575b600080fd5b61006b60048036038101906100669190610499565b6100ed565b60405161007a939291906105a6565b60405180910390f35b61009d60048036038101906100989190610499565b6101cf565b6040516100aa919061069c565b60405180910390f35b6100bb610344565b6040516100c891906106be565b60405180910390f35b6100eb60048036038101906100e6919061080e565b610350565b005b600081815481106100fd57600080fd5b90600052602060002090600302016000915090508060000160009054906101000a900473ffffffffffffffffffffffffffffffffffffffff169080600101805461014690610886565b80601f016020809104026020016040519081016040528092919081815260200182805461017290610886565b80156101bf5780601f10610194576101008083540402835291602001916101bf565b820191906000526020600020905b8154815290600101906020018083116101a257829003601f168201915b5050505050908060020154905083565b6101d7610418565b600080549050821061021e576040517f08c379a000000000000000000000000000000000000000000000000000000000815260040161021590610903565b60405180910390fd5b6000828154811061023257610231610923565b5b90600052602060002090600302016040518060600160405290816000820160009054906101000a900473ffffffffffffffffffffffffffffffffffffffff1673ffffffffffffffffffffffffffffffffffffffff1673ffffffffffffffffffffffffffffffffffffffff1681526020016001820180546102b190610886565b80601f01602080910402602001604051908101604052809291908181526020018280546102dd90610886565b801561032a5780601f106102ff5761010080835404028352916020019161032a565b820191906000526020600020905b81548152906001019060200180831161030d57829003601f168201915b505050505081526020016002820154815250509050919050565b60008080549050905090565b600060405180606001604052803373ffffffffffffffffffffffffffffffffffffffff16815260200183815260200142815250908060018154018082558091505060019003906000526020600020906003020160009091909190915060008201518160000160006101000a81548173ffffffffffffffffffffffffffffffffffffffff021916908373ffffffffffffffffffffffffffffffffffffffff16021790555060208201518160010190816104089190610afe565b5060408201518160020155505050565b6040518060600160405280600073ffffffffffffffffffffffffffffffffffffffff16815260200160608152602001600081525090565b6000604051905090565b600080fd5b600080fd5b6000819050919050565b61047681610463565b811461048157600080fd5b50565b6000813590506104938161046d565b92915050565b6000602082840312156104af576104ae610459565b5b60006104bd84828501610484565b91505092915050565b600073ffffffffffffffffffffffffffffffffffffffff82169050919050565b60006104f1826104c6565b9050919050565b610501816104e6565b82525050565b600081519050919050565b600082825260208201905092915050565b60005b83811015610541578082015181840152602081019050610526565b60008484015250505050565b6000601f19601f8301169050919050565b600061056982610507565b6105738185610512565b9350610583818560208601610523565b61058c8161054d565b840191505092915050565b6105a081610463565b82525050565b60006060820190506105bb60008301866104f8565b81810360208301526105cd818561055e565b90506105dc6040830184610597565b949350505050565b6105ed816104e6565b82525050565b600082825260208201905092915050565b600061060f82610507565b61061981856105f3565b9350610629818560208601610523565b6106328161054d565b840191505092915050565b61064681610463565b82525050565b600060608301600083015161066460008601826105e4565b506020830151848203602086015261067c8282610604565b9150506040830151610691604086018261063d565b508091505092915050565b600060208201905081810360008301526106b6818461064c565b905092915050565b60006020820190506106d36000830184610597565b92915050565b600080fd5b600080fd5b7f4e487b7100000000000000000000000000000000000000000000000000000000600052604160045260246000fd5b61071b8261054d565b810181811067ffffffffffffffff8211171561073a576107396106e3565b5b80604052505050565b600061074d61044f565b90506107598282610712565b919050565b600067ffffffffffffffff821115610779576107786106e3565b5b6107828261054d565b9050602081019050919050565b82818337600083830152505050565b60006107b16107ac8461075e565b610743565b9050828152602081018484840111156107cd576107cc6106de565b5b6107d884828561078f565b509392505050565b600082601f8301126107f5576107f46106d9565b5b813561080584826020860161079e565b91505092915050565b60006020828403121561082457610823610459565b5b600082013567ffffffffffffffff8111156108425761084161045e565b5b61084e848285016107e0565b91505092915050565b7f4e487b7100000000000000000000000000000000000000000000000000000000600052602260045260246000fd5b6000600282049050600182168061089e57607f821691505b6020821081036108b1576108b0610857565b5b50919050565b7f496e646578206f7574206f6620626f756e647300000000000000000000000000600082015250565b60006108ed601383610512565b91506108f8826108b7565b602082019050919050565b6000602082019050818103600083015261091c816108e0565b9050919050565b7f4e487b7100000000000000000000000000000000000000000000000000000000600052603260045260246000fd5b60008190508160005260206000209050919050565b60006020601f8301049050919050565b600082821b905092915050565b6000600883026109b47fffffffffffffffffffffffffffffffffffffffffffffffffffffffffffffffff82610977565b6109be8683610977565b95508019841693508086168417925050509392505050565b6000819050919050565b60006109fb6109f66109f184610463565b6109d6565b610463565b9050919050565b6000819050919050565b610a15836109e0565b610a29610a2182610a02565b848454610984565b825550505050565b600090565b610a3e610a31565b610a49818484610a0c565b505050565b5b81811015610a6d57610a62600082610a36565b600181019050610a4f565b5050565b601f821115610ab257610a8381610952565b610a8c84610967565b81016020851015610a9b578190505b610aaf610aa785610967565b830182610a4e565b50505b505050565b600082821c905092915050565b6000610ad560001984600802610ab7565b1980831691505092915050565b6000610aee8383610ac4565b9150826002028217905092915050565b610b0782610507565b67ffffffffffffffff811115610b2057610b1f6106e3565b5b610b2a8254610886565b610b35828285610a71565b600060209050601f831160018114610b685760008415610b56578287015190505b610b608582610ae2565b865550610bc8565b601f198416610b7686610952565b60005b82811015610b9e57848901518255600182019150602085019450602081019050610b79565b86831015610bbb5784890151610bb7601f891682610ac4565b8355505b6001600288020188555050505b50505050505056fea2646970667358221220046c3f1a6cd4742884e60047027872e928565f184c766ed79d50879179619c7264736f6c63430008130033",
  "linkReferences": {},
  "deployedLinkReferences": {}
}